:020000040800F2
:1000000000C00020E90C0008890C00088B0C0008D7
:100010008D0C00088F0C0008910C000800000000F7
:10002000000000000000000000000000930C000829
:10003000950C000800000000970C0008990C0008BF
:10004000310D0008310D0008310D0008310D000898
:10005000310D0008310D0008310D0008310D000888
:10006000310D0008310D0008310D0008310D000878
:10007000310D0008310D0008310D0008310D000868
:10008000310D0008310D0008310D0008310D000858
:10009000310D0008310D0008310D0008310D000848
:1000A000310D0008310D0008310D0008310D000838
:1000B000310D0008310D0008310D0008310D000828
:1000C000310D0008310D0008310D0008310D000818
:1000D000310D0008310D0008310D0008310D000808
:1000E000310D0008310D0008310D0008310D0008F8
:1000F000310D0008310D0008310D0008310D0008E8
:10010000310D0008310D0008310D0008310D0008D7
:10011000310D0008310D0008310D0008310D0008C7
:10012000310D0008310D0008310D0008310D0008B7
:1001300000000000000000000000000000000000BF
:1001400000000000000000000000000000000000AF
:10015000000000000000000000000000000000009F
:10016000000000000000000000000000000000008F
:10017000000000000000000000000000000000007F
:10018000000000000000000000000000000000006F
:10019000000000000000000000000000000000005F
:1001A000000000000000000000000000000000004F
:1001B000000000000000000000000000000000003F
:1001C000000000000000000000000000000000002F
:1001D000000000000000000000000000000000001F
:0401E0005FF8E0F1F3
:1001E40010B5054C237833B9044B13B10448AFF36D
:1001F40000800123237010BD0C00002000000000CB
:100204008C0D000808B5034B1BB103490348AFF339
:10021400008008BD00000000100000208C0D0008C4
:1002240038B50E4B054618784FF47A73B3FBF0F3E8
:100234000B4A1068B0FBF3F000F080F8044658B99C
:100244000F2D09D8024629464FF0FF3000F042F83E
:10025400044B20461D6038BD012038BD000000203D
:100264000800002004000020074A08B51368032092
:1002740043F01003136000F01BF80020FFF7D0FFD9
:1002840000F0DEFC002008BD00200240034A044BBD
:1002940011681B780B441360704700BF28000020CE
:1002A40000000020014B1868704700BF28000020A0
:1002B400074A0002D36800F4E06023F4E0631B04FF
:1002C4001B0C43F0BF6343F400330343D360704714
:1002D40000ED00E0174B30B5DC68C4F30224C4F130
:1002E4000703251D042B28BF0423062D4FF0010509
:1002F40098BF002405FA03F303F1FF3388BF033CDE
:100304001940A14005FA04F4013C2240002842EAC5
:1003140001024FEA0212A9BF00F16040064BD2B2BB
:1003240000F56140BBBF00F00F00D2B280F800239B
:100334001A5430BD00ED00E014ED00E00138B0F1D6
:10034400807F0AD2F021064B064A586082F82310B7
:100354000020072298601A6070470120704700BF90
:1003640010E000E000ED00E02DE9F74F0024264600
:100374006C4F6D4BDFF8B8E1DFF8B8C10A6832FAA8
:1003840006F502D103B0BDE8F08F4FF0010808FA7A
:1003940006F802EA0802904540F084804D68122D68
:1003A40000F0B18000F28780022D00F0A9807BD894
:1003B400002D00F08C80012D00F0A0804FF00F097B
:1003C400FF2A93BF824606F18045083DD0F800B06D
:1003D40092BFB500D0F804B0AD0009FA05F82BEAD5
:1003E400080804FA05F588BF00F1040A48EA05057F
:1003F400CAF80050D1F804A01AF0805F52D0BD6949
:1004040026F0030845F00105BD61BD6908F1804887
:1004140005F00105019508F5803806F0030B019DF0
:100424004FEA8B0BD8F8085009FA0BF925EA0909A9
:100434003E4DA8426CD005F58065A8426AD005F50A
:100444008065A84268D005F58065A84266D005F5A8
:100454008065A84264D070450CBF0525062505FAC1
:100464000BF545EA0905C8F808501D681AF4803FE1
:1004740014BF154395431D605D681AF4003F14BF13
:10048400154395435D609D681AF4801F14BF15439E
:1004940095439D60DD681AF4001F14BF2A4325EAC2
:1004A4000202DA60013669E7032D25D0112D85D1CA
:1004B400CC68043482E7654509D012D8DFF8789017
:1004C4004D4504D009F580394D457FF477AF8C68EC
:1004D400E4B1012C0CBFC0F81080C0F814800824CB
:1004E4006CE7DFF858904D45F1D009F580394D455A
:1004F400EDD0A9F58019E7E700245FE7CC685DE754
:10050400CC6808345AE7CC680C3457E7042455E720
:100514000025A4E70125A2E70225A0E703259EE71D
:1005240004259CE70010024000040140000801403B
:10053400001C0140000021100000111000003110C7
:100544000AB1016170470904FBE700002DE9F3419A
:10055400054608B901203CE00368DB0710D42B688A
:100564009F075DD42B68190700F194802B685A0704
:1005740000F1BE80E869002840F02C81002028E0CA
:100584008F4C636803F00C03042B07D0636803F0FB
:100594000C03082B09D16368DE0306D523689C038A
:1005A400DDD56B68002BDAD1D4E76B68B3F5803FF7
:1005B40012D1236843F480332360FFF773FE0646A9
:1005C40023689803CBD4FFF76DFE801B6428F7D90A
:1005D400032002B0BDE8F0819BB9236823F4803383
:1005E4002360236823F480232360FFF75BFE064621
:1005F40023689903B3D5FFF755FE801B6428F7D908
:10060400E6E7B3F5A02F236803D143F480232360E6
:10061400CFE723F480332360236823F48023CBE7DC
:10062400674C636813F00C0F07D0636803F00C0386
:10063400082B10D16368DA030DD423689B0702D515
:100644002B69012B86D123686A6923F0F80343EAF6
:10065400C203236086E72A695A4B6AB101221A60F1
:10066400FFF720FE064623689F07ECD4FFF71AFE27
:10067400801B0228F7D9ABE71A60FFF713FE064682
:10068400236898077FF56EAFFFF70CFE801B0228E6
:10069400F6D99DE7AA694A4C4B4BDAB101221A609C
:1006A400FFF700FE0646636A9B070DD54FF4FA5226
:1006B400464B1B68B3FBF2F3019300BF019B5A1E28
:1006C4000192002BF9D151E7FFF7ECFD801B0228C2
:1006D400E9D97DE71A60FFF7E5FD0646636A9F07DF
:1006E4007FF544AFFFF7DEFD801B0228F6D96FE7E4
:1006F400334CE369D80024D40127E36943F08053E1
:10070400E361E36903F080530093009B304E336848
:10071400D90518D5EB68012B26D1236A43F00103D0
:100724002362FFF7BFFD41F288368046236A9B07A8
:100734003FD5002F3FF41EAFE36923F08053E361FC
:1007440018E70027E2E7336843F480733360FFF768
:10075400A9FD80463368DA05DCD4FFF7A3FDA0EBDE
:1007640008006428F6D933E7ABB9236A41F2883824
:1007740023F001032362236A23F004032362FFF7B7
:1007840091FD0646236A9807D3D5FFF78BFD801B9E
:100794004045F7D91CE7052B236A03D143F0040332
:1007A4002362BAE723F001032362236A23F00403DC
:1007B400B6E7FFF777FDA0EB0800B042B6D907E72C
:1007C400001002400000424280044242080000201F
:1007D400007000402A4B5A681C4602F00C02082A9A
:1007E4003DD00023274E022833602BD1FFF75AFD5A
:1007F4000746236899011FD42B6AB3F5803F05D1BE
:100804006268A96822F400320A436260696A626815
:100814000B4322F474121343636001233360FFF724
:1008240041FD054623689A013FF5A8AEFFF73AFD5E
:10083400401B0228F6D9CBE6FFF734FDC01B022883
:10084400D7D9C5E6FFF72EFD054623689B017FF542
:1008540095AEFFF727FD401B0228F6D9B8E601281C
:100864003FF4B7AE58682B6A00F480329A427FF4A2
:1008740071AE6B6A00F47010C01A18BF0120A8E6AC
:10088400001002406000424230B5194B87B002AC00
:1008940003F11005224618685968083303C2AB42B5
:1008A4001446F7D101238DF80430022311498DF841
:1008B40005304B6803F00C02082A17D1C3F38342B6
:1008C40006A80244DB0312F8102C0CD54B680A4826
:1008D400C3F34043504306AA134413F8143CB0FB3B
:1008E400F3F007B030BD05485043FAE70248F8E793
:1008F400A40D00080010024000127A0000093D0017
:100904002DE9F0410D46044610B90120BDE8F081FF
:10091400454A136803F007038B4229D321688E07E5
:1009240031D4CA0744D4404A136803F007039D42F4
:1009340067D322683D4D12F0040F6ED1130706D51C
:100944006B68226923F4605343EAC2036B60FFF7C8
:100954009BFF6B68364AC3F30313D35CD840354B13
:100964001860354B1868FFF75BFC0020BDE8F08188
:10097400136823F007030B431360136803F00703A2
:100984009942C2D1CAE7294B11F0040F1EBF5A681D
:1009940042F4E0625A60080742BF5A6842F4605267
:1009A4005A605A68A06822F0F00202435A60B8E71D
:1009B40062681E4E012A33681BD113F4003FA4D091
:1009C400736841F2883823F0030313437360FFF71D
:1009D40069FC07467368626803F00C03B3EB820F8B
:1009E400A1D0FFF75FFCC01B4045F3D90320BDE84D
:1009F400F081022A02D113F0007FE0E713F0020F26
:100A0400DDE7136823F007032B431360136803F037
:100A140007039D427FF479AF8BE76B68E16823F4A9
:100A2400E0630B436B6089E7002002400010024042
:100A3400B40D0008080000200400002010B504468E
:100A4400002834D00023836290F8513003F0FF0271
:100A54001BB980F8502000F0B9F80223226884F80A
:100A640051301368A06823F0400313606368A169E0
:100A74000343E06803432069034360690343E06977
:100A84000343206A0343A06A034301F40070090C82
:100A9400034301F0040113605160D369002023F47F
:100AA4000063D3610123606584F8513010BD0120D7
:100AB40010BD000010B586B01022002102A800F07D
:100AC4005BF9144B144C9A69204642F020029A6157
:100AD4009A694FF4805102F020020092009A9A69B8
:100AE40042F004029A619B69012203F0040301931A
:100AF400019BFFF725FD4FF480530022029301234D
:100B040002A92046039304920593FFF72DFC06B037
:100B140010BD00BF001002400008014010B590B0A5
:100B24002822002106A800F027F90021142201A898
:100B340000F022F94FF480330122022407930E932C
:100B44004FF4E01306A806920A920F930D94FFF750
:100B5400FDFC0F234FF4806201930023214601A87A
:100B64000294039304920593FFF7CAFE10B010BDDC
:100B740008B5FFF779FBFFF7D1FFFFF79BFF00F004
:100B840003F8FEE77047000008B54FF4827E0D4875
:100B94000D4B4FF4007280E80840002382618360AB
:100BA400C3600361436110220362436283620A23C8
:100BB400C261C362FFF742FF18B1BDE80840FFF706
:100BC400E1BF08BD2C0000200030014010B50446F0
:100BD40086B01022002102A800F0CEF82268164B3D
:100BE4009A4226D103F560439A6902A942F48052DD
:100BF4009A619A69114802F480520092009A9A69A3
:100C040042F004029A619B6903F004030193019B7F
:100C1400A02302930223039303230593FFF7A4FB6A
:100C240040230293002302A9044803930493FFF78B
:100C34009BFB06B010BD00BF00300140000801401E
:100C44000E4B82B09A6942F001029A619A6902F0ED
:100C540001020092009ADA6942F08052DA61DB699B
:100C6400074A03F080530193019B536823F0E06328
:100C740043F00073536002B0704700BF001002409D
:100C8400000001407047FEE7FEE7FEE7FEE770471D
:100C940070477047FFF7FABA0F4B1A6842F0010227
:100CA4001A6059680D4A0A405A601A6822F0847220
:100CB40022F480321A601A6822F480221A605A6878
:100CC40022F4FE025A604FF41F029A604FF0006251
:100CD400034B9A60704700BF001002400000FFF809
:100CE40000ED00E0002103E00B4B5B58435004315E
:100CF4000A480B4B42189A42F6D30A4A02E00023F0
:100D040042F8043B084B9A42F9D3FFF7C5FF00F0C1
:100D14000FF8FFF72DFF7047CC0D000800000020EE
:100D24000C0000200C00002084000020FEE70000DE
:100D340070B500250C4E0D4CA41BA410A54209D17E
:100D440000F022F800250A4E0A4CA41BA410A54268
:100D540005D170BD56F8253098470135EEE756F8B1
:100D6400253098470135F2E7C40D0008C40D00088A
:100D7400C40D0008C80D000803460244934200D184
:100D8400704703F8011BF9E7F8B500BFF8BC08BCCD
:100D94009E467047F8B500BFF8BC08BC9E46704735
:100DA40002030405060708090A0B0C0D0E0F1010A8
:100DB4000000000000000000010203040607080907
:040DC4000902000818
:040DC800E501000839
:0C0DCC0001000000100000000024F400F2
:0400000508000CE9FA
:00000001FF
