:020000040800F2
:1000000000C00020551A00085D1700086917000895
:100010006F170008751700087B1700080000000024
:100020000000000000000000000000008117000830
:100030008D1700080000000099170008A517000898
:100040009D1A00089D1A00089D1A00089D1A0008B4
:100050009D1A00089D1A00089D1A00089D1A0008A4
:100060009D1A00089D1A00089D1A00089D1A000894
:100070009D1A00089D1A00089D1A00089D1A000884
:100080009D1A00089D1A00089D1A00089D1A000874
:100090009D1A00089D1A00089D1A00089D1A000864
:1000A0009D1A00089D1A00089D1A00089D1A000854
:1000B0009D1A00089D1A00089D1A00089D1A000844
:1000C0009D1A00089D1A00089D1A00089D1A000834
:1000D0009D1A00089D1A00089D1A00089D1A000824
:1000E0009D1A00089D1A00089D1A00089D1A000814
:1000F0009D1A00089D1A00089D1A00089D1A000804
:100100009D1A00089D1A00089D1A00089D1A0008F3
:100110009D1A00089D1A00089D1A00089D1A0008E3
:100120009D1A00089D1A00089D1A00089D1A0008D3
:1001300000000000000000000000000000000000BF
:1001400000000000000000000000000000000000AF
:10015000000000000000000000000000000000009F
:10016000000000000000000000000000000000008F
:10017000000000000000000000000000000000007F
:10018000000000000000000000000000000000006F
:10019000000000000000000000000000000000005F
:1001A000000000000000000000000000000000004F
:1001B000000000000000000000000000000000003F
:1001C000000000000000000000000000000000002F
:1001D000000000000000000000000000000000001F
:0401E0005FF8E0F1F3
:1001E40010B5054C237833B9044B13B10448AFF36D
:1001F40000800123237010BD700000200000000067
:10020400DC23000808B5034B1BB103490348AFF3D3
:10021400008008BD0000000074000020DC230008FA
:1002240080B500AF084A084B1B6843F01003136005
:10023400032000F027F9002000F008F801F05AFA32
:100244000023184680BD00BF0020024080B582B064
:1002540000AF7860124B1A68124B1B7819464FF4A2
:100264007A73B3FBF1F3B2FBF3F3184600F031F900
:100274000346002B01D001230EE07B680F2B0AD824
:10028400002279684FF0FF3000F007F9064A7B68D6
:100294001360002300E0012318460837BD4680BDE3
:1002A40008000020040000200000002080B400AFFB
:1002B400054B1B781A46054B1B681344034A13600D
:1002C40000BFBD4680BC7047040000209800002099
:1002D40080B400AF024B1B681846BD4680BC704713
:1002E4009800002080B584B000AF7860FFF7F0FF7D
:1002F400B8607B68FB60FB68B3F1FF3F05D0094B36
:100304001B781A46FB681344FB6000BFFFF7E0FF4D
:100314000246BB68D21AFB689A42F7D300BF103773
:10032400BD4680BD0400002080B485B000AF786075
:100334007B6803F00703FB600C4BDB68BB60BA68A7
:100344004FF6FF031340BB60FB681A02BB681343FC
:1003540043F0BF6343F40033BB60044ABB68D3601B
:1003640000BF1437BD4680BC704700BF00ED00E0FD
:1003740080B400AF044BDB681B0A03F00703184684
:10038400BD4680BC704700BF00ED00E080B483B080
:1003940000AF03463960FB7197F90730002B0ADB85
:1003A4000D4997F907303A68D2B21201D2B20B4420
:1003B40083F800230AE00949FB7903F00F03043BA7
:1003C4003A68D2B21201D2B20B441A7600BF0C378B
:1003D400BD4680BC704700BF00E100E000ED00E0D6
:1003E40080B489B000AFF860B9607A60FB6803F04C
:1003F4000703FB61FB69C3F10703042B28BF042334
:10040400BB61FB690433062B02D9FB69033B00E0A3
:1004140000237B610122BB6902FA03F35A1EBB6805
:100424001A407B699A4001217B6901FA03F3591E42
:100434007B680B40134318462437BD4680BC704785
:1004440080B582B000AF78607B68013BB3F1807FF8
:1004540001D301230FE00A4A7B68013B53600F215B
:100464004FF0FF30FFF792FF054B00229A60044BD8
:1004740007221A60002318460837BD4680BD00BF16
:1004840010E000E080B582B000AF78607868FFF7D4
:100494004BFF00BF0837BD4680BD80B586B000AFB6
:1004A4000346B9607A60FB7300237B61FFF760FF4A
:1004B40078617A68B9687869FFF792FF024697F91C
:1004C4000F3011461846FFF761FF00BF1837BD46CD
:1004D40080BD80B582B000AF78607868FFF7B0FF68
:1004E400034618460837BD4680BD000080B48BB073
:1004F40000AF7860396000237B6200233B6233E104
:1005040001227B6A02FA03F3FB613B681A68FB6908
:100514001340BB61BA69FB699A4240F022813B688F
:100524005B68122B34D0122B0DD8022B2BD0022B4C
:1005340004D8002B31D0012B1CD048E0032B43D02E
:10054400112B1BD043E08F4A934226D08D4A93420D
:1005540006D88D4A934220D08C4A93421DD036E06F
:100564008B4A934219D08B4A934216D08A4A9342BB
:1005740013D02CE03B68DB683B6228E03B68DB6817
:1005840004333B6223E03B68DB6808333B621EE0D4
:100594003B68DB680C333B6219E03B689B68002BCB
:1005A40002D104233B6212E03B689B68012B05D116
:1005B40008233B627B68FA691A6108E008233B62FE
:1005C4007B68FA695A6102E000233B6200BFBB69A1
:1005D400FF2B01D87B6801E07B6804337B61BB6936
:1005E400FF2B02D87B6A9B0002E07B6A083B9B00DE
:1005F4003B617B691A680F213B6901FA03F3DB4312
:100604001A40396A3B6901FA03F31A437B691A6099
:100614003B685B6803F08053002B00F0A2805F4AC4
:100624005E4B9B6943F0010393615C4B9B6903F050
:100634000103BB60BB685A4A7B6A9B08023352F8C9
:100644002330FB607B6A03F003039B000F2202FA52
:1006540003F3DB43FA681340FB607B68514A93421F
:100664001FD07B68504A934219D07B684F4A93420B
:1006740013D07B684E4A93420DD07B684D4A934217
:1006840007D07B684C4A934201D105230AE0062334
:1006940008E0042306E0032304E0022302E001232C
:1006A40000E000237A6A02F0030292009340FA68A1
:1006B4001343FB603A497B6A9B080233FA6841F8AA
:1006C40023203B685B6803F48033002B06D03B494E
:1006D4003A4B1A68BB6913430B6006E03749374B42
:1006E4001A68BB69DB4313400B603B685B6803F427
:1006F4000033002B06D03149304B5A68BB69134391
:100704004B6006E02D492D4B5A68BB69DB4313400F
:100714004B603B685B6803F48013002B06D02749C9
:10072400264B9A68BB6913438B6006E02349234B2D
:100734009A68BB69DB4313408B603B685B6803F4D6
:100744000013002B06D01D491C4BDA68BB69134308
:10075400CB6006E01949194BDA68BB69DB431340E7
:10076400CB607B6A01337B623B681A687B6A22FA3E
:1007740003F3002B7FF4C4AE00BF2C37BD4680BC0E
:10078400704700BF0000211000001110000012107B
:10079400000031100000321000002210001002404E
:1007A4000000014000080140000C0140001001401D
:1007B4000014014000180140001C014000040140E5
:1007C40080B485B000AF78600B467B807B689A6804
:1007D4007B881340002B02D00123FB7301E000232C
:1007E400FB73FB7B18461437BD4680BC704780B44E
:1007F40083B000AF78600B467B8013467B707B78B8
:10080400002B03D07A887B681A6103E07B881A0482
:100814007B681A6100BF0C37BD4680BC704700007E
:1008240080B586B000AF78607B68002B01D10123CE
:100834006CE27B681B6803F00103002B00F08780E7
:10084400924B5B6803F00C03042B0CD08F4B5B685A
:1008540003F00C03082B12D18C4B5B6803F4803338
:10086400B3F5803F0BD1894B1B6803F40033002B95
:100874006CD07B685B68002B68D1012346E27B68FF
:100884005B68B3F5803F06D1804A804B1B6843F414
:10089400803313602EE07B685B68002B0CD17B4AAD
:1008A4007A4B1B6823F480331360784A774B1B68B8
:1008B40023F4802313601DE07B685B68B3F5A02FED
:1008C4000CD1724A714B1B6843F4802313606F4A46
:1008D4006E4B1B6843F4803313600BE06B4A6B4B25
:1008E4001B6823F480331360684A684B1B6823F445
:1008F400802313607B685B68002B13D0FFF7E8FC50
:10090400386108E0FFF7E4FC02463B69D31A642B24
:1009140001D90323FAE15D4B1B6803F40033002B78
:10092400F0D014E0FFF7D4FC386108E0FFF7D0FC06
:1009340002463B69D31A642B01D90323E6E1534BE6
:100944001B6803F40033002BF0D100E000BF7B6888
:100954001B6803F00203002B63D04C4B5B6803F06D
:100964000C03002B0BD0494B5B6803F00C03082BE2
:100974001CD1464B5B6803F48033002B16D1434BE8
:100984001B6803F00203002B05D07B681B69012B55
:1009940001D00123BAE13D493C4B1B6823F0F80226
:1009A4007B685B69DB0013430B603AE07B681B697F
:1009B400002B20D0364B01221A60FFF789FC3861E6
:1009C40008E0FFF785FC02463B69D31A022B01D9E4
:1009D40003239BE12D4B1B6803F00203002BF0D093
:1009E4002A492A4B1B6823F0F8027B685B69DB0009
:1009F40013430B6015E0264B00221A60FFF768FCD6
:100A0400386108E0FFF764FC02463B69D31A022B05
:100A140001D903237AE11D4B1B6803F00203002B69
:100A2400F0D17B681B6803F00803002B3AD07B6885
:100A34009B69002B19D0174B01221A60FFF748FC61
:100A4400386108E0FFF744FC02463B69D31A022BE5
:100A540001D903235AE10D4B5B6A03F00203002B17
:100A6400F0D0012000F0DAFA1CE00A4B00221A60F0
:100A7400FFF72EFC38610FE0FFF72AFC02463B69C2
:100A8400D31A022B08D9032340E100BF001002400F
:100A940000004242800442429E4B5B6A03F0020320
:100AA400002BE9D17B681B6803F00403002B00F0E2
:100AB400A6800023FB75974BDB6903F08053002B62
:100AC4000DD1944A934BDB6943F08053D361914B2E
:100AD400DB6903F08053BB60BB680123FB758E4B5D
:100AE4001B6803F48073002B18D18B4A8A4B1B6854
:100AF40043F480731360FFF7EBFB386108E0FFF702
:100B0400E7FB02463B69D31A642B01D90323FDE0BA
:100B1400814B1B6803F48073002BF0D07B68DB6887
:100B2400012B06D17B4A7B4B1B6A43F00103136202
:100B34002DE07B68DB68002B0CD1764A754B1B6A71
:100B440023F001031362734A724B1B6A23F00403FC
:100B540013621CE07B68DB68052B0CD16D4A6D4B7E
:100B64001B6A43F0040313626A4A6A4B1B6A43F02C
:100B7400010313620BE0674A664B1B6A23F001030F
:100B84001362644A634B1B6A23F0040313627B6899
:100B9400DB68002B15D0FFF79BFB38610AE0FFF7F9
:100BA40097FB02463B69D31A41F28832934201D93A
:100BB4000323ABE0574B1B6A03F00203002BEED078
:100BC40014E0FFF785FB38610AE0FFF781FB02467A
:100BD4003B69D31A41F28832934201D9032395E049
:100BE4004C4B1B6A03F00203002BEED1FB7D012B5F
:100BF40005D1484A474BDB6923F08053D3617B68B6
:100C0400DB69002B00F08180424B5B6803F00C032E
:100C1400082B61D07B68DB69022B46D13F4B002255
:100C24001A60FFF755FB386108E0FFF751FB0246F5
:100C34003B69D31A022B01D9032367E0354B1B68A8
:100C440003F00073002BF0D17B681B6AB3F5803F7F
:100C540008D130492F4B5B6823F400327B689B68D2
:100C640013434B602B482B4B5B6823F474127B6853
:100C7400196A7B685B6A0B4313434360274B012269
:100C84001A60FFF725FB386108E0FFF721FB0246F5
:100C94003B69D31A022B01D9032337E01D4B1B6890
:100CA40003F00073002BF0D02FE01C4B00221A60DD
:100CB400FFF70EFB386108E0FFF70AFB02463B69C9
:100CC400D31A022B01D9032320E0124B1B6803F033
:100CD4000073002BF0D118E07B68DB69012B01D194
:100CE400012313E00B4B5B68FB60FB6803F4803269
:100CF4007B681B6A9A4206D1FB6803F470127B6816
:100D04005B6A9A4201D0012300E000231846183799
:100D1400BD4680BD001002400070004060004242A9
:100D240080B584B000AF786039607B68002B01D156
:100D34000123D0E06A4B1B6803F007023B689A4228
:100D440010D26749664B1B6823F007023B681343C4
:100D54000B60634B1B6803F007023B689A4201D0A7
:100D64000123B8E07B681B6803F00203002B20D04A
:100D74007B681B6803F00403002B05D0594A594BC8
:100D84005B6843F4E06353607B681B6803F008030B
:100D9400002B05D0534A534B5B6843F460535360B4
:100DA4005049504B5B6823F0F0027B689B68134307
:100DB4004B607B681B6803F00103002B40D07B6809
:100DC4005B68012B07D1474B1B6803F40033002BEE
:100DD40015D101237FE07B685B68022B07D1414B6F
:100DE4001B6803F00073002B09D1012373E03D4B12
:100DF4001B6803F00203002B01D101236BE0394986
:100E0400384B5B6823F003027B685B6813434B60D9
:100E1400FFF75EFAF8600AE0FFF75AFA0246FB6849
:100E2400D31A41F28832934201D9032353E02D4B64
:100E34005B6803F00C027B685B689B009A42EBD111
:100E4400274B1B6803F007023B689A4210D92449D8
:100E5400234B1B6823F007023B6813430B60204BB2
:100E64001B6803F007023B689A4201D0012332E079
:100E74007B681B6803F00403002B08D01949194B45
:100E84005B6823F4E0627B68DB6813434B607B6838
:100E94001B6803F00803002B09D01249114B5B684F
:100EA40023F460527B681B69DB0013434B6000F042
:100EB40021F801460B4B5B681B0903F00F030A4A38
:100EC400D35C21FA03F3094A1360094B1B681846E3
:100ED400FFF7BCF9002318461037BD4680BD00BF9C
:100EE40000200240001002401424000808000020E2
:100EF4000000002090B48AB000AF2A4B3C1D0FCBF9
:100F040084E80F00284B1B883B800023FB610023EF
:100F1400BB6100237B6200237B6100233B62234B84
:100F24005B68FB61FB6903F00C03042B02D0082B04
:100F340003D02DE01E4B3B622DE0FB699B0C03F0BC
:100F44000F0307F12802134413F8243C7B61FB6967
:100F540003F48033002B13D0144B5B685B0C03F059
:100F6400010307F12802134413F8283CBB617B6991
:100F74000F4A02FB03F2BB69B2FBF3F37B6204E0AA
:100F84007B690C4A02FB03F37B627B6A3B6202E0EF
:100F9400074B3B6200BF3B6A18462837BD4690BCEE
:100FA400704700BFF4230008042400080010024026
:100FB40000127A0000093D0080B400AF024B1B68A8
:100FC4001846BD4680BC70470800002080B500AFBD
:100FD400FFF7F2FF0146054B5B681B0A03F00703AA
:100FE400034AD35C21FA03F3184680BD0010024083
:100FF4002424000880B500AFFFF7DEFF0146054B4F
:101004005B68DB0A03F00703034AD35C21FA03F3AA
:10101400184680BD001002402424000880B485B026
:1010240000AF78600A4B1B680A4AA2FB03235B0AE1
:101034007A6802FB03F3FB6000BFFB685A1EFA6088
:10104400002BF9D100BF1437BD4680BC704700BFE8
:1010540008000020D34D621080B582B000AF7860E4
:101064007B68002B01D101233FE07B6893F8393082
:10107400DBB2002B06D17B68002283F83820786825
:1010840000F09AFC7B68242283F839207B681B6873
:101094007A681268D26822F40052DA60786800F044
:1010A4000BF97B681B687A681268126922F4904213
:1010B4001A617B681B687A681268526922F02A02F6
:1010C4005A617B681B687A681268D26842F40052DD
:1010D400DA607B680022DA637B68202283F8392097
:1010E4007B68202283F83A20002318460837BD463F
:1010F40080BD80B588B002AFF860B9603B6013462C
:10110400FB8000237B61FB6893F83930DBB2202B32
:1011140040F08280BB68002B02D0FB88002B01D1F9
:1011240001237AE0FB6893F83830012B01D10223C4
:1011340073E0FB68012283F83820FB680022DA633D
:10114400FB68212283F83920FFF7C2F87861FB6835
:10115400FA889A84FB68FA88DA8441E0FB68DB8CBD
:101164009BB2013B9AB2FB68DA84FB689B68B3F5D7
:10117400805F21D13B6800937B6900228021F8685D
:1011840000F04FF80346002B01D0032345E0BB6871
:101194003B61FB681B683A691288C2F308025A6013
:1011A400FB681B69002B03D1BB680233BB6017E0EB
:1011B400BB680133BB6013E03B6800937B6900228A
:1011C4008021F86800F02DF80346002B01D003239A
:1011D40023E0FB681A68BB68591CB9601B7853602C
:1011E400FB68DB8C9BB2002BB8D13B6800937B6916
:1011F40000224021F86800F014F80346002B01D0C7
:1012040003230AE0FB68202283F83920FB680022CC
:1012140083F83820002300E0022318461837BD461F
:1012240080BD80B584B000AFF860B9603B60134600
:10123400FB712CE0BB69B3F1FF3F28D0BB69002BE5
:1012440007D0FFF745F802463B68D21ABB699A42B9
:101254001DD9FB681B68FA681268D26822F4D07240
:10126400DA60FB681B68FA681268526922F00102AE
:101274005A61FB68202283F83920FB68202283F816
:101284003A20FB68002283F8382003230FE0FB6830
:101294001B681A68BB681A40BB689A420CBF0123DA
:1012A4000023DBB21A46FB799A42C3D000231846C6
:1012B4001037BD4680BD000090B585B000AF7860A2
:1012C4007B681B687A681268126922F440517A6854
:1012D400D2680A431A617B689A687B681B691A435F
:1012E4007B685B691343FB607B681A687B681B68D7
:1012F400DB6823F4B05323F00C03F9680B43D36089
:101304007B681B687A681268526922F440717A68B3
:1013140092690A435A617B681B68524A93424ED1D0
:10132400FFF768FEB8607B681968BA6813469B00CB
:1013340013449A001A447B685B689B00B2FBF3F386
:10134400494AA2FB03235B091801BA6813469B00B0
:1013540013449A001A447B685B689B00B2FBF3F267
:10136400414BA3FB02435B09642404FB03F3D31A3C
:101374001B0132333C4AA2FB03235B0903F0F00355
:101384001844BA6813469B0013449A001A447B68B5
:101394005B689B00B2FBF3F2334BA3FB02435B0994
:1013A400642404FB03F3D31A1B0132332E4AA2FB39
:1013B40003235B0903F00F0303448B604DE0FFF745
:1013C40005FEB8607B681968BA6813469B0013442D
:1013D4009A001A447B685B689B00B2FBF3F3224AD1
:1013E400A2FB03235B091801BA6813469B0013444C
:1013F4009A001A447B685B689B00B2FBF3F21A4BB9
:10140400A3FB02435B09642404FB03F3D31A1B010B
:101414003233154AA2FB03235B0903F0F00318449B
:10142400BA6813469B0013449A001A447B685B68AD
:101434009B00B2FBF3F20C4BA3FB02435B09642455
:1014440004FB03F3D31A1B013233074AA2FB032321
:101454005B0903F00F0303448B6000BF1437BD46E0
:1014640090BD00BF003801401F85EB5180B582B0AC
:1014740000AF78607868FEF735FF00BF0837BD46D7
:1014840080BD000080B584B000AF786000224FF4C6
:1014940000712B48FFF7ABF901224FF40071284883
:1014A400FFF7A5F90023FB6035E000222021254841
:1014B400FFF79DF9BB685B00BB607B6803F40043E6
:1014C400002B05D0002280211E48FFF790F904E08C
:1014D400012280211B48FFF78AF940211948FFF7B0
:1014E4006FF90346012B04D1BB6843F00103BB60D1
:1014F40003E0BB6823F00103BB60012220211148F3
:10150400FFF775F97B685B007B600120FFF7AEFF96
:10151400FB680133FB60FB680F2BC6D90022202136
:101524000848FFF764F900224FF400710448FFF7FC
:101534005EF9BB689BB218461037BD4680BD00BF3C
:10154400001001400008014080B588B000AF07F1E9
:10155400100300221A605A609A60DA602D4A2D4BFB
:101564009B6943F0200393612A4B9B6903F020039A
:10157400FB60FB68274A274B9B6943F00403936194
:10158400244B9B6903F00403BB60BB68214A214BD5
:101594009B6943F0100393611E4B9B6903F0100396
:1015A4007B607B68002260211B48FFF720F9002242
:1015B4004FF400711948FFF71AF960233B610123C6
:1015C4007B610023BB610223FB6107F11003194611
:1015D4001148FEF78BFF80233B6100237B610023CE
:1015E400BB6107F1100319460B48FEF77FFF4FF468
:1015F40000733B6101237B610023BB610223FB6118
:1016040007F1100319460548FEF770FF00BF2037A5
:10161400BD4680BD0010024000080140001001409A
:1016240080B582B000AFFEF7FBFD00F017F8FFF7BE
:101634008BFF00F097F948F21000FFF723FF4FF4F7
:101644002840FFF71FFF0020FFF71CFF78600248C7
:1016540000F0B2FAF7E700BF0824000880B590B0A4
:1016640000AF07F1180328220021184600F040FAC1
:101674003B1D00221A605A609A60DA601A610123E5
:10168400BB614FF48033FB6100233B620123BB62E7
:1016940002237B634FF48033BB634FF4E013FB639B
:1016A40007F118031846FFF7BBF80346002B01D0D7
:1016B40000F019F80F237B600223BB600023FB605A
:1016C4004FF480633B6100237B613B1D022118467C
:1016D400FFF726FB0346002B01D000F004F800BFFF
:1016E4004037BD4680BD80B400AF00BFBD4680BC5E
:1016F4007047000080B485B000AF154A144B9B6955
:1017040043F001039361124B9B6903F00103BB6037
:10171400BB680F4A0E4BDB6943F08053D3610C4B1B
:10172400DB6903F080537B607B680A4B5B68FB607A
:10173400FB6823F0E063FB60FB6843F00073FB602D
:10174400044AFB68536000BF1437BD4680BC704731
:10175400001002400000014080B400AF00BFBD464D
:1017640080BC704780B400AFFEE780B400AFFEE7F2
:1017740080B400AFFEE780B400AFFEE780B400AFF2
:1017840000BFBD4680BC704780B400AF00BFBD46FB
:1017940080BC704780B400AF00BFBD4680BC7047BA
:1017A40080B500AFFEF782FD00BF80BD90B587B065
:1017B40000AFF860B9607A6000237B610AE0BC681E
:1017C400631CBB60AFF300800346DBB223707B690C
:1017D40001337B617A697B689A42F0DB7B68184647
:1017E4001C37BD4690BD000080B584B000AF786062
:1017F400114B1B68002B02D10F4B104A1A600E4B81
:101804001B68FB600C4B1A687B6813446A4693425E
:1018140007D900F043F902460C2313604FF0FF335D
:1018240006E0054B1A687B681344034A1360FB689F
:1018340018461037BD4680BD8C000020E000002013
:1018440080B483B000AF78604FF0FF3318460C3794
:10185400BD4680BC704780B483B000AF7860396007
:101864003B684FF400525A60002318460C37BD46BB
:1018740080BC704780B483B000AF78600123184601
:101884000C37BD4680BC704780B485B000AFF860AB
:10189400B9607A60002318461437BD4680BC70478F
:1018A40080B400AF154A154B1B6843F00103136065
:1018B4001249124B5A68124B13404B600F4A0F4B9C
:1018C4001B6823F0847323F4803313600B4A0B4B9F
:1018D4001B6823F480231360084A084B5B6823F4D5
:1018E400FE035360054B4FF41F029A60054B4FF003
:1018F40000629A6000BFBD4680BC70470010024081
:101904000000FFF800ED00E080B582B000AF786021
:10191400391D4FF0FF3301220348FFF7EAFB7B68D0
:1019240018460837BD4680BD9C00002080B586B0AF
:1019340000AFF860B9607A6000237B6109E0BB689E
:101944005A1CBA601B781846FFF7DEFF7B69013327
:101954007B617A697B689A42F1DB7B6818461837A9
:10196400BD4680BD80B500AF114B124A1A60104BC2
:101974004FF4E1325A600E4B00229A600C4B002265
:10198400DA600B4B00221A61094B0C225A61084B96
:1019940000229A61064B0022DA610548FFF75CFBDE
:1019A4000346002B01D0FFF79EFE00BF80BD00BFA1
:1019B4009C0000200038014080B588B000AF7860FA
:1019C40007F1100300221A605A609A60DA607B689B
:1019D4001B681C4A934231D11B4A1B4B9B6943F43D
:1019E40080439361184B9B6903F48043FB60FB685D
:1019F400154A154B9B6943F004039361124B9B6991
:101A040003F00403BB60BB684FF400733B61022323
:101A14007B610323FB6107F1100319460B48FEF7B2
:101A240065FD4FF480633B6100237B610023BB6150
:101A340007F1100319460548FEF758FD00BF20378B
:101A4400BD4680BD0038014000100240000801403E
:101A5400002103E00B4B5B58435004310A480B4B05
:101A640042189A42F6D30A4A02E0002342F8043BA1
:101A7400084B9A42F9D3FFF713FF00F015F8FFF76C
:101A8400CFFD70479824000800000020700000205B
:101A940070000020E0000020FEE70000014B186801
:101AA400704700BF0C00002070B500250C4E0D4C93
:101AB400A41BA410A54209D100F08EFC00250A4EF7
:101AC4000A4CA41BA410A54205D170BD56F82530BC
:101AD40098470135EEE756F8253098470135F2E787
:101AE40090240008902400089024000894240008FE
:101AF40003460244934200D1704703F8011BF9E7FF
:101B040070B50E46054618B183690BB900F00EFA9C
:101B1400AB69AC6813B9284600F008FA234B9C4221
:101B240017D16C68A3891B071DD52369DBB1013E5E
:101B3400A36816F8011F013BA360E9B9002B2EDA54
:101B440022460A21284600F03FF8013011D00A202D
:101B540070BD174B9C4201D1AC68E3E7154B9C4226
:101B640008BFEC68DEE72146284600F07FF800282D
:101B7400DDD04FF0FF3070BD002B04DAA269934230
:101B840006DB0A2904D023685A1C22601970CFE7A7
:101B94002246284600F018F80130C9D1E9E70A20A6
:101BA40023685A1C2260187070BD00BF50240008BE
:101BB4007024000830240008024B01461868FFF71F
:101BC4009FBF00BF0C000020F8B50E461446054622
:101BD40018B183690BB900F0A9F9214B9C422AD1B1
:101BE4006C68A369A360A3891A072ED5236963B31C
:101BF40023692068F6B2C01A63693746984204DB49
:101C04002146284600F028F928BBA3680130013B8F
:101C1400A36023685A1C22601E706369984204D032
:101C2400A389DB0719D50A2E17D12146284600F0CF
:101C340013F990B10FE00B4B9C4201D1AC68D0E793
:101C4400094B9C4208BFEC68CBE72146284600F0CC
:101C54000DF80028CCD04FF0FF373846F8BD00BF50
:101C6400502400087024000830240008324B70B55A
:101C74001D6806460C4625B1AB6913B9284600F029
:101C840055F92E4B9C420FD16C68B4F90C309AB2C2
:101C940015072CD4D00611D40922326043F0400336
:101CA400A3814FF0FF3070BD254B9C4201D1AC683D
:101CB400EBE7244B9C4208BFEC68E6E7510712D5DA
:101CC400616B41B104F14403994202D0304600F003
:101CD4001BFA00236363A38923F02403A381002355
:101CE400636023692360A38943F00803A381236904
:101CF4004BB9A38903F42073B3F5007F03D02146C5
:101D0400304600F0C1F9A28912F001030CD000237F
:101D1400A36063695B42A361236953B9B4F90C30CE
:101D240013F08000BAD170BD920758BF6369A360F5
:101D3400F2E70020F7E700BF0C0000205024000861
:101D440070240008302400088A892DE9F0410546F2
:101D540010070C465AD44B68002B05DC0B6C002B87
:101D640002DC0020BDE8F081E66A002EF9D00023F1
:101D740012F480522F682B6033D0606DA3895A0708
:101D840005D56368C01A636B0BB1236CC01A0023BA
:101D94000246E66A216A2846B047431CA38906D155
:101DA40029681D294BD82B4ACA40D60747D500229B
:101DB40062602269D904226004D5421C01D12B68D7
:101DC40003B96065616B2F600029CAD004F1440334
:101DD400994202D0284600F097F900206063BDE8DC
:101DE400F081216A01232846B047411CC6D12B68E3
:101DF400002BC3D01D2B01D0162B01D12F60B0E7CF
:101E0400A38943F04003A381BDE8F0810F69002F4B
:101E1400A7D0930718BF00230E6808BF4B69A6EB31
:101E240007080F608B60B8F1000F9ADD43463A460D
:101E3400216A2846A66AB047002807DCA38943F034
:101E44004003A3814FF0FF30BDE8F0810744A8EBC5
:101E54000008E8E70100402038B50B6905460C4648
:101E6400DBB118B183690BB900F060F80C4B9C42EC
:101E740009D16C68B4F90C307BB121462846BDE821
:101E84003840FFF761BF074B9C4201D1AC68F1E7D2
:101E9400054B9C4208BFEC68ECE7002038BD00BF4E
:101EA400502400087024000830240008014900F080
:101EB400A9B800BF5D1E0008002310B504460360E6
:101EC4004360836081814366C281036143618361AE
:101ED400194608225C30FFF70BFE054B246263624F
:101EE400044BA362044BE362044B236310BD00BFA5
:101EF40081220008A3220008DB220008FF22000838
:101F040070B568254A1E55430E4605F1740100F06C
:101F140047F9044640B1002180E842000C30A0603B
:101F240005F16802FFF7E4FD204670BD836910B532
:101F3400044633BB8364C3640365124B124A1B68B3
:101F44008262984204BF0123836100F01FF860603D
:101F5400204600F01BF8A060204600F017F800228D
:101F6400E06004216068FFF7A7FF01220921A0684F
:101F7400FFF7A2FF02221221E068FFF79DFF012371
:101F8400A36110BD2C240008B11E0008F8B51C4B39
:101F940007461E68B36913B93046FFF7C7FF4836D2
:101FA400B4687368013B03D5336833B13668F7E727
:101FB400B4F90C506DB16834F4E704213846FFF7E6
:101FC4009FFF30600028F1D10C2304463B6020467B
:101FD400F8BD4FF6FF73E38101236566A381256095
:101FE400A560656025616561A5610822294604F143
:101FF4005C00FFF77DFD6563A563A564E564E6E722
:102004002C2400082DE9F84380468946002600F177
:10201400480414B93046BDE8F883A5686768013FF1
:1020240001D52468F5E7AB89012B07D9B5F90E3042
:10203400013303D029464046C84706436835EEE7D6
:1020440070B50E46B1F90E1090B0002914461D4625
:1020540007DA00232B60B3891A0610D44FF4806387
:102064000EE001AA00F070F90028F2DB029A02F4F3
:102074007042A2F500535A425A412A60EEE74023C7
:102084000020236010B070BD8B8973B59D07064690
:102094000C4607D504F147032360236101236361E0
:1020A40002B070BD01AB6A46FFF7CAFF009905464E
:1020B400304600F075F848B9B4F90C309A05EFD4FD
:1020C40023F0030343F00203A381E3E70D4BB36260
:1020D400A389206043F08003A381009B2061636196
:1020E400019B5BB1B4F90E10304600F03FF928B102
:1020F400A38923F0030343F00103A381A3891D43B0
:10210400A581CDE7B11E000838B50546002943D0A6
:1021140051F8043C0C1F002BB8BFE41800F048F938
:102124001E4A1368104633B9636014602846BDE83C
:10213400384000F03EB9A3420BD92168621893429B
:1021440001BF1A685B685218226063600460EDE79F
:1021540013465A680AB1A242FAD919685818A0421B
:102164000BD120680144581882421960DED11068EE
:102174005268014419605A60D8E702D90C232B60D5
:10218400D4E7206821188A4201BF116852680918EF
:10219400216062605C60C9E738BD00BF9000002028
:1021A40070B5CD1C25F0030508350C2D38BF0C2562
:1021B400002D064601DBA94203D90C23336000201D
:1021C40070BD00F0F5F8234A1468214691B9224CF9
:1021D40023681BB9304600F041F820602946304698
:1021E40000F03CF8431C26D10C233046336000F049
:1021F400E0F8E4E70B685B1B1AD40B2B0FD90B60D8
:10220400CC18CD50304600F0D4F804F10B00231D57
:1022140020F00700C31A1BD05A42E25070BD8C4212
:102224000BBF63684B681360636018BF0C46E9E733
:102234000C464968CAE7C41C24F00304A04205D034
:10224400211A304600F00AF80130CDD02560D9E7D4
:1022540070BD00BF900000209400002038B500231A
:10226400054C054608462360FFF7BEFA431C02D11D
:10227400236803B12B6038BDDC00002010B50C4688
:10228400B1F90E1000F096F80028ABBF636DA38976
:102294001B1823F48053ACBF6365A38110BD2DE9E3
:1022A400F0411F468B890546DB050C46164605D5CD
:1022B40002230022B1F90E1000F068F8A389324617
:1022C40023F48053A381B4F90E103B462846BDE89D
:1022D400F04100F017B810B50C46B1F90E1000F03B
:1022E40055F8431CA38915BF606523F4805343F458
:1022F4008053A38118BFA38110BDB1F90E1000F063
:1023040013B8000038B50546084611460022054CAE
:1023140022601A46FFF70AFB431C02D1236803B16B
:102324002B6038BDDC00002038B50023054C054681
:1023340008462360FFF784FA431C02D1236803B1E3
:102344002B6038BDDC00002038B50023064C054660
:10235400084611462360FFF77EFA431C02D1236826
:1023640003B12B6038BD00BFDC00002038B500236A
:10237400054C054608462360FFF77CFA431C02D14E
:10238400236803B12B6038BDDC00002038B5054656
:10239400084611460022054C22601A46FFF774FADB
:1023A400431C02D1236803B12B6038BDDC0000203C
:1023B4007047704738B50546084611460022054C5B
:1023C40022601A46FFF7F2F9431C02D1236803B1D5
:1023D4002B6038BDDC000020F8B500BFF8BC08BC99
:1023E4009E467047F8B500BFF8BC08BC9E467047CF
:1023F40002030405060708090A0B0C0D0E0F101042
:102404000102000068656C6C6F776F726C640D007C
:102414000000000000000000010203040607080990
:10242400000000000102030410000020000000006E
:102434000000000000000000000000000000000098
:102444000000000000000000000000000000000088
:102454000000000000000000000000000000000078
:102464000000000000000000000000000000000068
:102474000000000000000000000000000000000058
:0C2484000000000000000000000000004C
:042490000902000835
:04249400E501000856
:1024980010000000010000000024F40010000020DB
:1024A80000000000502400087024000830240008B0
:1024B8000000000000000000000000000000000014
:1024C8000000000000000000000000000000000004
:1024D80000000000000000000000000000000000F4
:1024E80000000000000000000000000000000000E4
:1024F80000000000000000000000000000000000D4
:0400000508001A5580
:00000001FF
